:020000040000FA
:0400000007EF00F016
:0A00080059821FED04F07CEF08F0B0
:10080000007F93A6B8C7D4DEE6EAEDEDEDECEBEAA7
:10081000E9EAEBECEDEDEDEAE6DED4C7B8A6937FAE
:100820006B5846372A20181411111112131415147D
:1008300013121111111418202A3746586B000600A4
:10084000FACF3FF0FBCF40F0F2A429EF04F02BEFFA
:1008500004F02CEF04F0F2949EAC31EF04F033EF8F
:1008600004F065EF04F09E9C4EEF04F002D844EFD4
:1008700004F005000001FA6EBF51FD6EC051FE6E1E
:10088000F850FF6EFA501200030EC26E65EF04F0CE
:1008900003EC09F0070EC26E65EF04F0C230E832D7
:1008A0000F0B3D6E3E6A3E50000AD8B45AEF04F07A
:1008B00065EF04F03D50000AD8B448EF04F0010A97
:1008C000D8B436EF04F065EF04F0F2A26AEF04F05A
:1008D0006CEF04F083EF04F0F1AC71EF04F075EF0E
:1008E00004F03D6A3D2A76EF04F03D6A3D3A3D460C
:1008F0003D46F1503D18BF0B3D18F16EF292BEEC33
:1009000004F0B8EF04F0F0A088EF04F08AEF04F0F0
:100910009EEF04F0F1AA8FEF04F093EF04F03D6A2C
:100920003D2A94EF04F03D6A3D3A3D46F1503D18B2
:10093000DF0B3D18F16EF0907FEF04F0F0A2A3EF13
:1009400004F0A5EF04F0B8EF04F0F1A8AAEF04F06A
:10095000AEEF04F03D6A3D2AAFEF04F03D6A3D3A48
:10096000F1503D18EF0B3D18F16EF0927FEF04F05F
:1009700040C0FBFF3FC0FAFF59921100D59ED6CF71
:1009800054F0D7CF55F0566A000ED76E000ED66ED3
:10099000D58E26C01CF027C01DF081CF3BF0070E7E
:1009A0003B163B50306E316A30043110D8A4DBEF77
:1009B00004F0DDEF04F0E3EF04F0000E276E0C0E00
:1009C000266E51EF05F0050E30183110D8A4EBEF6C
:1009D00004F0EDEF04F0F3EF04F0000E276E040EC8
:1009E000266E51EF05F0040E30183110D8A4FBEF3D
:1009F00004F0FDEF04F003EF05F0000E276E2F0E5C
:100A0000266E51EF05F0060E30183110D8A40BEF0A
:100A100005F00DEF05F013EF05F0000E276E260E22
:100A2000266E51EF05F0020E30183110D8A41BEFDE
:100A300005F01DEF05F027EF05F0060E2E182F101C
:100A4000D8B425EF05F027EF05F03BEF05F0060ED3
:100A500030183110D8A42FEF05F031EF05F041EF39
:100A600005F0040E2E182F10D8A439EF05F03BEF37
:100A700005F041EF05F0000E276E1E0E266E51EFB9
:100A800005F0030E30183110D8A449EF05F04BEFF4
:100A900005F051EF05F0000E276E150E266E51EF92
:100AA00005F030C02EF031C02FF0010E366E12006E
:100AB0009C0E526ED70EE82EFED7522EFCD700F0B9
:100AC000C00EF26E180EF06ED09E700EF1129D8C5C
:100AD0000D0EC16EAE0EC06E070EC26E000E896E98
:100AE000000E8D6E9368C30E926EFC0E966E8B9008
:100AF0009490F19E8B0ED56EA80E0001BF6F0D0E67
:100B0000C06F8A9693960D0EBA6ECB68000EBB6EC0
:100B1000CF0EBA16040ECA6E050ECD6E000E606FB3
:100B2000C20E616F010E626F000E636F010E646F83
:100B3000EDEC08F0C30E8916D8900001C631536E53
:100B4000C531526EC151525CC2515358D8B0ABEF4F
:100B500005F0ADEF05F09CEF05F0140EC525526EC3
:100B6000000EC621536EC151525CC2515358D8A0D9
:100B7000BCEF05F0BEEF05F09CEF05F0000EC46F72
:100B8000000EC36F0E0EBF6F0F0EC06F8B8021EE75
:100B900060F010EE65F03F0EDBCFE3FFE806FCE20D
:100BA000D4EF05F010EC09F00001C25107E1BE0ED0
:100BB000C15DD8B0DEEF05F0E0EF05F0D2EF05F053
:100BC000C25109E17E0EC15DD8A0E9EF05F0EBEF5F
:100BD00005F0D2EF05F0F1EC05F0D4EF05F007EFEA
:100BE00000F0000E346E5850020D000EF324D96E42
:100BF000010EF420DA6EDECF47F0DDCF48F0483446
:100C0000483247324834483247324750416E575095
:100C1000020D000EF324D96E010EF420DA6EDECF41
:100C200049F0DDCF4AF04A344A3249324A344A3236
:100C300049324950426E3550020D000EF324D96EF0
:100C4000010EF420DA6EDECF4BF0DDCF4CF04C34E9
:100C50004C324B324C344C324B324B5069EC06F038
:100C6000184A192A3950476E486A1850475C19507B
:100C70004858D8B03EEF06F040EF06F068EF06F0B7
:100C8000000E196E000E186E352A582A572A35C0E4
:100C900041F0426A000E446E300E436E2FEC07F0B6
:100CA0004150356E58C041F0426A000E446E300E1D
:100CB000436E2FEC07F04150586E57C041F0426A26
:100CC000000E446E300E436E2FEC07F04150576E0D
:100CD0001200436ECE50435CD8B071EF06F073EF54
:100CE00006F081EF06F080A478EF06F07AEF06F0C8
:100CF0007EEF06F08094040EE82EFED780868DEFFE
:100D000006F080A686EF06F088EF06F08CEF06F07E
:100D10008096040EE82EFED78084CE50415CD8B079
:100D200094EF06F096EF06F0A4EF06F080A89BEF94
:100D300006F09DEF06F0A1EF06F08098040EE82E75
:100D4000FED7808AB0EF06F080AAA9EF06F0ABEFDD
:100D500006F0AFEF06F0809A040EE82EFED78088EA
:100D6000CE50425CD8B0B7EF06F0B9EF06F0C7EF4F
:100D700006F084A0BEEF06F0C0EF06F0C4EF06F068
:100D80008490040EE82EFED78482D3EF06F084A26E
:100D9000CCEF06F0CEEF06F0D2EF06F08492040E10
:100DA000E82EFED784801200C3CFC1F0C4CFC2F0BA
:100DB000D8900001C6313C6EC5313B6EC1513B5CE1
:100DC000226EC2513C58236E23BEEFEF06F0235033
:100DD00008E12204D8A0EFEF06F0F1EF06F0F5EFFE
:100DE00006F0C34BC42BF9EF06F0000EC46F000EE3
:100DF000C36FC4BF05EF07F00D0EC35D020EC459EB
:100E0000D8A005EF07F007EF07F00DEF07F0020E8F
:100E1000C46F0C0EC36F18EF07F0C4BF14EF07F0D8
:100E200012EF07F018EF07F0000EC46F000EC36F4B
:100E3000C3C03BF0C4C03CF03C343C323B323C3499
:100E40003C323B323B50BB6EC3C03BF0030E3B1603
:100E50003B3ABA503B18CF0B3B18BA6E1200000E4B
:100E6000466E42BE38EF07F036EF07F03EEF07F070
:100E7000416C421ED8B0422A010E466E44BE45EF78
:100E800007F043EF07F049EF07F0436C441ED8B07A
:100E9000442A43504410D8B450EF07F052EF07F003
:100EA00076EF07F0010E456E5AEF07F0D890433603
:100EB0004436452A44AE5FEF07F061EF07F056EF86
:100EC00007F04350415C44504258D8A06AEF07F005
:100ED0006CEF07F070EF07F04350415E4450425A08
:100EE000D89044324332452E61EF07F04650D8B4D3
:100EF0007CEF07F07EEF07F082EF07F0416C421EB7
:100F0000D8B0422A41C041F042C042F01200C3CFE3
:100F1000C1F0C4CFC2F00001C151C55D226EC25103
:100F2000C659236E23BE9DEF07F0235008E122042B
:100F3000D8A09DEF07F09FEF07F0A3EF07F0C34B9A
:100F4000C42BA7EF07F0000EC46F000EC36FC4BF21
:100F5000B1EF07F0040EC45DD8A0B1EF07F0B3EF16
:100F600007F0B8EF07F0030EC46FC369C3EF07F0D3
:100F7000C4BFBFEF07F0BDEF07F0C3EF07F0000EEF
:100F8000C46F000EC36FC3C03BF0C4C03CF03C3420
:100F90003C323B323C343C323B323B50BB6EC3C0F4
:100FA0003BF0030E3B163B3ABA503B18CF0B3B18B5
:100FB000BA6E1200000E496E000E4A6E000E4B6EA5
:100FC000000E4C6E4550461047104810D8B4EBEF59
:100FD00007F0EDEF07F023EF08F0010E4D6EF7EF8D
:100FE00007F0D89045364636473648364D2A48AE43
:100FF000FCEF07F0FEEF07F0F1EF07F0D89049366D
:101000004A364B364C364550415C46504258475064
:10101000435848504458D8A010EF08F012EF08F099
:101020001BEF08F04550415E4650425A4750435A24
:101030004850445A4980D890483247324632453267
:101040004D2EFEEF07F049C041F04AC042F04BC0C0
:1010500043F04CC044F012007F006E005E004E0072
:101060004000320025001A0011000A0004000100AF
:101070000000010004000A0011001A0025003200DF
:1010800040004E005E006E007F009000A000B000A7
:10109000BF00CC00D900E400ED00F400FA00FD0030
:1010A000FE00FF00FA00F400ED00E400D900CC00DF
:1010B000BF00B000A0009000413A3020423A3020FA
:1010C000433A300A00000000000000000000000069
:1010D0000000000000000000000000000000000010
:1010E0000000000000000000000000000000000000
:1010F0000000000000000000580EF66E100EF76EA3
:10110000000EF86E01EE00F010EEA0F00900F5CF31
:10111000EEFFE550E150FAE1330EF66E120EF76E77
:10112000000EF86E0900F5CFC5F00900F5CFC6F046
:101130002E0EF66E120EF76E000EF86E00EE54F0E4
:1011400010EE05F00900F5CFEEFFE550E150FAE1B1
:1011500000EEA5F0200EEE6AE806FDE100EE01F0DB
:101160003A0EEE6AE806FDE159905992000EF86ECB
:10117000000158EF05F0ACA4C0EF08F0C2EF08F092
:10118000D8EF08F0C00E416EC60E426E2D0E436EB3
:10119000000E446E4EC045F04FC046F050C047F0C0
:1011A00051C048F0DAEC07F04104AF6EECEF08F004
:1011B000B00E416E710E426E0B0E436E000E446E09
:1011C0004EC045F04FC046F050C047F051C048F007
:1011D000DAEC07F04104AF6E1200948E948C00019B
:1011E00064B102D0AC9401D0AC8460C04EF061C058
:1011F0004FF062C050F063C051F0BBEC08F0AC9807
:10120000AB8EAB881200C3CF3BF0C4CF3CF0D8907C
:101210003C323B32D8903C323B323B50396E12006C
:101220008098809A809680948490849212001027EF
:05123000002010AD00DC
:020000040020DA
:08000000FFFFFFFFFFFFFFFF00
:020000040030CA
:0E000000030E191EFF8280FF0FC00FE00F409D
:00000001FF
